:060000000C9445000C9475
:1000060000000C9400000C9407010C9400000C9462
:1000160000000C9400000C9400000C9400000C945A
:1000260000000C9400000C9400000C9400000C944A
:1000360000000C9400000C9400000C9400000C943A
:1000460000000C9400000C9400000C9400000001C9
:10005600030700001027E80364000A0001000010EF
:10006600000110000100000000000000000103076D
:10007600010002006C00040004006E00040060022F
:1000860072000000F894EE27ECBBF1E0FBBFEBBF7B
:10009600E5BFF8E1F1BDE1BD8DE0A2E0BB27ED9340
:1000A6008A95E9F780E098E0A0E6ED930197E9F7F5
:1000B600E6E7F0E085919591009761F0A591B591FD
:1000C60005901590BF01F00105900D920197E1F79B
:1000D600FB01F0CFEFE5EDBFE8E0EEBFC0E6D2E012
:1000E6000C94A701AA931A930A93C498AA810E9412
:1000F600B4014E2EEA81F0E0E07EF070309721F5F3
:10010600EA81EF71EA3041F0EA81EF71EB3021F0DC
:10011600EA81EF71E03199F404E010E0112372F006
:10012600F801E05AFD4FFF93EF93AFEF0E94B40141
:10013600AF91BF91EC9301501040F0CF04C0AFEFE8
:100146000E94B4015E2E58C0E032A0E0FA07F1F436
:10015600EA81EF71EA3041F0EA81EF71EB3021F08C
:10016600EA81EF71E03171F404E010E011234AF006
:10017600F801EC5AFF4FA4910E94B40101501040BF
:10018600F5CF03C0A52D0E94B40136C0E036A0E02D
:10019600FA07F1F4EA81E170E130A9F40091650211
:1001A6001127002E012A71F0F801EB59FD4FFF933C
:1001B600EF93AFEF0E94B401AF91BF91EC93015062
:1001C6001040EFCF04C0AFEF0E94B4015E2E14C002
:1001D600E03AA0E0FA0781F4009165021127002EAB
:1001E600012A51F0A5E6B2E0A00FB11FAC910E9422
:1001F600B40101501040F3CFC49A8BE18A95F1F710
:1002060019810881239608950A921A92FA926A939E
:100216007A938A939A93AA93BA93EA93FA93EFB747
:10022600EA936620E1F4AFEF5DDF45FE15C0E2E03C
:100236007E2EA7E157DF50FC0EC0A0E653DFE0E2BA
:10024600E51538F050926502A1E64CDFE3E07E2E1C
:1002560002C0A2EE47DF02C0E4E07E2E0EC0A0E69A
:1002660041DFE0E2E51518F4A2EE3CDF06C050924D
:100276006502A1E637DFE1E07E2EEEE75E2EA7E21D
:1002860031DFA1EE2FDFE991EFBFF991E991B99145
:10029600A9919991899179916991F990199009900B
:1002A6001895AA93E0E0E8BBE0EBE7BBC49AC398D5
:1002B600EBB7E062EBBFE0E0E5BFE4BFE0E2EABF38
:1002C600E0E5EDB9E0E0EEB97894AEE6B0E00E9484
:1002D600C1016880E1E05E2EA1E20E94BC01A2E2BB
:1002E60001DFE3E05E2EA3E2FDDEEFE25E2EA4E296
:1002F6000E94BC01A5E2F6DEE6E05E2EA6E2F2DE94
:10030600AAE2F0DEA0E30E94BC01ACE3EBDEE7E08C
:100316005E2EADE3E7DEE881E03059F4EEE45E2ED2
:10032600A0E2E0DEA4E6B0E00E94C101689420F8F5
:1003360009C0EFE35E2EA0E2D5DEA5E0B0E00E94A4
:10034600C101C39A0C94BA01EFEFEABBA1E0A9DFA1
:10035600E1E0E71521F4909066029BBA7724F8CF86
:10036600FFCFAA93E881EFB9779BFECFEFB1219635
:1003760008950E947500E1E05E2E0895109639F00A
:1003860080ED97E00197F1F7A8951197C9F70895C1
:00000001FF
