:100000000C9445000C9400000C9400000C94070123
:100010000C9400000C9400000C9400000C94000060
:100020000C9400000C9400000C9400000C94000050
:100030000C9400000C9400000C9400000C94000040
:100040000C9400000C9400000C9400000C94000030
:100050000C9400000001030700001027E80364006F
:100060000A00010000100001100001000000000063
:10007000000000010307010002006C0004000400FE
:100080006E000400600272000000F894EE27ECBBE2
:10009000F1E0FBBFEBBFE5BFF8E1F1BDE1BD8DE0F5
:1000A000A2E0BB27ED938A95E9F780E098E0A0E60F
:1000B000ED930197E9F7E6E7F0E0859195910097D8
:1000C00061F0A591B59105901590BF01F0010590E3
:1000D0000D920197E1F7FB01F0CFEFE5EDBFE8E00E
:1000E000EEBFC0E6D2E00C940C02AA931A930A93D6
:1000F000C498AA810E9421024E2EEA81F0E0E07E9F
:10010000F070309721F5EA81EF71EA3041F0EA8131
:10011000EF71EB3021F0EA81EF71E03199F404E006
:1001200010E0112372F0F801E05AFD4FFF93EF93B6
:10013000AFEF0E942102AF91BF91EC9301501040AC
:10014000F0CF04C0AFEF0E9421025E2E58C0E03213
:10015000A0E0FA07F1F4EA81EF71EA3041F0EA81B8
:10016000EF71EB3021F0EA81EF71E03171F404E0DE
:1001700010E011234AF0F801EC5AFF4FA4910E94BD
:10018000210201501040F5CF03C0A52D0E9421028D
:1001900036C0E036A0E0FA07F1F4EA81E170E13020
:1001A000A9F4009165021127002E012A71F0F801CF
:1001B000EB59FD4FFF93EF93AFEF0E942102AF91F8
:1001C000BF91EC9301501040EFCF04C0AFEF0E94FD
:1001D00021025E2E14C0E03AA0E0FA0781F40091FB
:1001E00065021127002E012A51F0A5E6B2E0A00F0A
:1001F000B11FAC910E94210201501040F3CFC49A6C
:100200008BE18A95F1F719810881239608950A9266
:100210001A92FA926A937A938A939A93AA93BA93C8
:10022000EA93FA93EFB7EA936620E1F4AFEF5DDF6C
:1002300045FE15C0E2E07E2EA7E157DF50FC0EC060
:10024000A0E653DFE0E2E51538F050926502A1E642
:100250004CDFE3E07E2E02C0A2EE47DF02C0E4E006
:100260007E2E0EC0A0E641DFE0E2E51518F4A2EE16
:100270003CDF06C050926502A1E637DFE1E07E2E4A
:10028000EEE75E2EA7E231DFA1EE2FDFE991EFBFAF
:10029000F991E991B991A99199918991799169918E
:1002A000F990199009901895BA93AA931A930A9302
:1002B00000E010E0EC81E093650200E010E0EC81EA
:1002C000D801F0E0AE17BF077CF4F801EA59FD4F02
:1002D0000F01F801AA81BB81AE0FBF1FEC91D001C5
:1002E000EC930F5F1F4FEBCF20FE3AC0E89420F84D
:1002F000A0916402E8E5F0E0E491EA17E1F4A0914E
:100300006302E7E5F0E0E491EA17A9F4A091620244
:10031000E6E5F0E0E491EA1771F4A0916102E5E509
:10032000F0E0E491EA1739F4E4E5F0E0E491A0911B
:100330006002EA1709F012C0A1EED7DEA0EAD5DE0E
:10034000AAE0B0E00E942E02C39A85E38A95F1F7F5
:10035000C398AAE0B0E00E942E0202C0E5E07E2E23
:10036000772019F0689420F8772419810881259660
:100370000895AA93E0E0E8BBE0EBE7BBC49AC3981A
:10038000EBB7E062EBBFE0E0E5BFE4BFE0E2EABF6D
:10039000E0E5EDB9E0E0EEB97894AEE6B0E00E94B9
:1003A0002E026880E1E05E2EA1E20E942902A2E214
:1003B0009CDEE3E05E2EA3E298DEEFE25E2EA4E296
:1003C0000E942902A5E291DEE6E05E2EA6E28DDE25
:1003D000AAE28BDEA0E30E942902ACE386DEE7E01E
:1003E0005E2EADE382DEE881E03059F4EEE45E2E6D
:1003F000A0E27BDEA4E6B0E00E942E02689420F822
:1004000009C0EFE35E2EA0E270DEA5E0B0E00E943E
:100410002E02C39A0C942702A0E0ABDFEFEFEABBF9
:100420009394E1E0EA93A9E0B0E03EDF9BBAA4EF49
:10043000B1E00E942E02EFEFE91509F49924F0CF04
:10044000FFCFAA93E881EFB9779BFECFEFB121965A
:1004500008950E947500E1E05E2E0895109639F02F
:1004600080ED97E00197F1F7A8951197C9F70895E6
:00000001FF
